:100000000C9446000C9465000C9465000C946500FB
:100010000C9465000C9465000C9465000C946500CC
:100020000C9465000C9465000C9465000C946500BC
:100030000C9465000C941C010C9465000C946500F4
:100040000C9465000C9465000C9465000C9465009C
:100050000C9465000C9465000C9465000C9465008C
:100060000C9465000C9465000C9465000C9465007C
:100070000C9465000C9465000C9465000C9465006C
:100080000C9465000C9465000C94650011241FBE4F
:10009000CFEFD0E4DEBFCDBF11E0A0E0B1E0E6EDF0
:1000A000F4E000E00BBF02C007900D92A032B10750
:1000B000D9F721E0A0E2B1E001C01D92AA32B20757
:1000C000E1F70E9447020C9469020C94000040E0A2
:1000D00050E00CC000002F5F3F4F02C020E030E036
:1000E000273063E03607B4F34F5F5F4F4817590777
:1000F000ACF308959BB19F7B9BB988B98BB18068A5
:100100008BB900008BB18F778BB982E090E00E94B1
:100110006700089581E00E947A000895813120F4FB
:1001200081580E947A00089581550E947A000895AE
:1001300084E690E00E94670088E30E947A0086E0EF
:100140000E947A008FE00E947A0081E00E947A008B
:100150008AE090E00E94670008959BB190649BB98B
:1001600088B98BB180688BB900008BB18F778BB960
:1001700081E090E00E9467000895EF92FF920F9354
:100180001F93CF93DF93182FEB010E948A000EC0BC
:1001900001E0010F812F0E948E007E018FEFE81A8F
:1001A000F80A88810E94AD00102FE7018881811133
:1001B000EFCFDF91CF911F910F91FF90EF900895B6
:1001C000CF93C82F8A3019F48DE00E94E00080910F
:1001D000C00085FFFCCFC093C60080E090E0CF91C7
:1001E00008958BE0809381008DE790E090938900E3
:1001F0008093880082E080936F00109285001092B7
:1002000084008091040190910501A0910601B091B4
:1002100007018093200190932101A0932201B093C4
:1002200023018FB780688FBF0895109281000895D1
:1002300081E08093240108951F920F920FB60F92D0
:1002400011240BB60F922F933F934F935F936F93AD
:100250007F938F939F93AF93BF93EF93FF9380917F
:10026000200190912101A0912201B09123010197D9
:10027000A109B1098093200190932101A09322014B
:10028000B0932301892B8A2B8B2B91F40E941801A8
:100290008091040190910501A0910601B0910701A0
:1002A0008093200190932101A0932201B093230118
:1002B000FF91EF91BF91AF919F918F917F916F913E
:1002C0005F914F913F912F910F900BBE0F900FBEFA
:1002D0000F901F901895609304017093050180930F
:1002E0000601909307016093200170932101809390
:1002F0002201909323010895809126019091270176
:1003000081309105B9F040F08230910509F445C083
:10031000039709F465C07FC081E090E090932701C6
:10032000809326011092290185E080932801109284
:10033000250175C0009B06C080912501813011F414
:100340001092250100990BC080912501813039F46C
:1003500081E090E0909327018093260113C0009BD9
:100360000BC080912501811107C081E090E090933E
:1003700027018093260106C082E090E09093270138
:100380008093260180912901833020F48F5F809330
:10039000290145C01092290142C0009B1AC083E088
:1003A00090E0909327018093260180912901882372
:1003B00011F0823031F4809128018F5F8093280101
:1003C0002EC080912801882351F18150809328010B
:1003D00026C082E090E090932701809326011FC001
:1003E000009B07C083E090E0909327018093260153
:1003F00016C081E090E090932701809326018093BE
:1004000025011092290180912801893041F485E06D
:100410008093280104C01092270110922601809138
:100420002601909127018130910571F018F0049711
:1004300068F51AC015B80E948A008091280190E0E2
:10044000C0960E94AD000895E0912901F0E0E050CF
:10045000FF4F808185B90E948A008091280190E039
:10046000C0960E94AD00089580912801893031F432
:1004700066E171E081E00E94BD0008950E948A005B
:100480008091280190E0C0960E94AD0008958FEF02
:1004900084B915B887B918B88AB91BB811B882B928
:1004A0006CE271E080E090E00E946B010E94F1003C
:1004B00010922701109226010E9498000E948A0043
:1004C0000E947C01809124018823E1F31092240191
:0604D000F7CFF894FFCF06
:1004D600010204020100000000000002000000000A
:1004E600E00000000000566963746F7279212100F4
:00000001FF
